{
  "address": "0xE0bf5B90c1d6B1381Ca28BBdb849641C18bcFdf5",
  "abi": [
    {
      "inputs": [
        {
          "internalType": "contract RoleStore",
          "name": "_roleStore",
          "type": "address"
        }
      ],
      "stateMutability": "nonpayable",
      "type": "constructor"
    },
    {
      "inputs": [
        {
          "internalType": "address",
          "name": "msgSender",
          "type": "address"
        },
        {
          "internalType": "string",
          "name": "role",
          "type": "string"
        }
      ],
      "name": "Unauthorized",
      "type": "error"
    },
    {
      "inputs": [
        {
          "internalType": "bytes32",
          "name": "setKey",
          "type": "bytes32"
        },
        {
          "internalType": "address",
          "name": "value",
          "type": "address"
        }
      ],
      "name": "addAddress",
      "outputs": [],
      "stateMutability": "nonpayable",
      "type": "function"
    },
    {
      "inputs": [
        {
          "internalType": "bytes32",
          "name": "setKey",
          "type": "bytes32"
        },
        {
          "internalType": "bytes32",
          "name": "value",
          "type": "bytes32"
        }
      ],
      "name": "addBytes32",
      "outputs": [],
      "stateMutability": "nonpayable",
      "type": "function"
    },
    {
      "inputs": [
        {
          "internalType": "bytes32",
          "name": "setKey",
          "type": "bytes32"
        },
        {
          "internalType": "uint256",
          "name": "value",
          "type": "uint256"
        }
      ],
      "name": "addUint",
      "outputs": [],
      "stateMutability": "nonpayable",
      "type": "function"
    },
    {
      "inputs": [
        {
          "internalType": "bytes32",
          "name": "",
          "type": "bytes32"
        },
        {
          "internalType": "uint256",
          "name": "",
          "type": "uint256"
        }
      ],
      "name": "addressArrayValues",
      "outputs": [
        {
          "internalType": "address",
          "name": "",
          "type": "address"
        }
      ],
      "stateMutability": "view",
      "type": "function"
    },
    {
      "inputs": [
        {
          "internalType": "bytes32",
          "name": "",
          "type": "bytes32"
        }
      ],
      "name": "addressValues",
      "outputs": [
        {
          "internalType": "address",
          "name": "",
          "type": "address"
        }
      ],
      "stateMutability": "view",
      "type": "function"
    },
    {
      "inputs": [
        {
          "internalType": "bytes32",
          "name": "key",
          "type": "bytes32"
        },
        {
          "internalType": "int256",
          "name": "value",
          "type": "int256"
        }
      ],
      "name": "applyBoundedDeltaToUint",
      "outputs": [
        {
          "internalType": "uint256",
          "name": "",
          "type": "uint256"
        }
      ],
      "stateMutability": "nonpayable",
      "type": "function"
    },
    {
      "inputs": [
        {
          "internalType": "bytes32",
          "name": "key",
          "type": "bytes32"
        },
        {
          "internalType": "int256",
          "name": "value",
          "type": "int256"
        }
      ],
      "name": "applyDeltaToInt",
      "outputs": [
        {
          "internalType": "int256",
          "name": "",
          "type": "int256"
        }
      ],
      "stateMutability": "nonpayable",
      "type": "function"
    },
    {
      "inputs": [
        {
          "internalType": "bytes32",
          "name": "key",
          "type": "bytes32"
        },
        {
          "internalType": "int256",
          "name": "value",
          "type": "int256"
        },
        {
          "internalType": "string",
          "name": "errorMessage",
          "type": "string"
        }
      ],
      "name": "applyDeltaToUint",
      "outputs": [
        {
          "internalType": "uint256",
          "name": "",
          "type": "uint256"
        }
      ],
      "stateMutability": "nonpayable",
      "type": "function"
    },
    {
      "inputs": [
        {
          "internalType": "bytes32",
          "name": "key",
          "type": "bytes32"
        },
        {
          "internalType": "uint256",
          "name": "value",
          "type": "uint256"
        }
      ],
      "name": "applyDeltaToUint",
      "outputs": [
        {
          "internalType": "uint256",
          "name": "",
          "type": "uint256"
        }
      ],
      "stateMutability": "nonpayable",
      "type": "function"
    },
    {
      "inputs": [
        {
          "internalType": "bytes32",
          "name": "",
          "type": "bytes32"
        },
        {
          "internalType": "uint256",
          "name": "",
          "type": "uint256"
        }
      ],
      "name": "boolArrayValues",
      "outputs": [
        {
          "internalType": "bool",
          "name": "",
          "type": "bool"
        }
      ],
      "stateMutability": "view",
      "type": "function"
    },
    {
      "inputs": [
        {
          "internalType": "bytes32",
          "name": "",
          "type": "bytes32"
        }
      ],
      "name": "boolValues",
      "outputs": [
        {
          "internalType": "bool",
          "name": "",
          "type": "bool"
        }
      ],
      "stateMutability": "view",
      "type": "function"
    },
    {
      "inputs": [
        {
          "internalType": "bytes32",
          "name": "",
          "type": "bytes32"
        },
        {
          "internalType": "uint256",
          "name": "",
          "type": "uint256"
        }
      ],
      "name": "bytes32ArrayValues",
      "outputs": [
        {
          "internalType": "bytes32",
          "name": "",
          "type": "bytes32"
        }
      ],
      "stateMutability": "view",
      "type": "function"
    },
    {
      "inputs": [
        {
          "internalType": "bytes32",
          "name": "",
          "type": "bytes32"
        }
      ],
      "name": "bytes32Values",
      "outputs": [
        {
          "internalType": "bytes32",
          "name": "",
          "type": "bytes32"
        }
      ],
      "stateMutability": "view",
      "type": "function"
    },
    {
      "inputs": [
        {
          "internalType": "bytes32",
          "name": "setKey",
          "type": "bytes32"
        },
        {
          "internalType": "address",
          "name": "value",
          "type": "address"
        }
      ],
      "name": "containsAddress",
      "outputs": [
        {
          "internalType": "bool",
          "name": "",
          "type": "bool"
        }
      ],
      "stateMutability": "view",
      "type": "function"
    },
    {
      "inputs": [
        {
          "internalType": "bytes32",
          "name": "setKey",
          "type": "bytes32"
        },
        {
          "internalType": "bytes32",
          "name": "value",
          "type": "bytes32"
        }
      ],
      "name": "containsBytes32",
      "outputs": [
        {
          "internalType": "bool",
          "name": "",
          "type": "bool"
        }
      ],
      "stateMutability": "view",
      "type": "function"
    },
    {
      "inputs": [
        {
          "internalType": "bytes32",
          "name": "setKey",
          "type": "bytes32"
        },
        {
          "internalType": "uint256",
          "name": "value",
          "type": "uint256"
        }
      ],
      "name": "containsUint",
      "outputs": [
        {
          "internalType": "bool",
          "name": "",
          "type": "bool"
        }
      ],
      "stateMutability": "view",
      "type": "function"
    },
    {
      "inputs": [
        {
          "internalType": "bytes32",
          "name": "key",
          "type": "bytes32"
        },
        {
          "internalType": "int256",
          "name": "value",
          "type": "int256"
        }
      ],
      "name": "decrementInt",
      "outputs": [
        {
          "internalType": "int256",
          "name": "",
          "type": "int256"
        }
      ],
      "stateMutability": "nonpayable",
      "type": "function"
    },
    {
      "inputs": [
        {
          "internalType": "bytes32",
          "name": "key",
          "type": "bytes32"
        },
        {
          "internalType": "uint256",
          "name": "value",
          "type": "uint256"
        }
      ],
      "name": "decrementUint",
      "outputs": [
        {
          "internalType": "uint256",
          "name": "",
          "type": "uint256"
        }
      ],
      "stateMutability": "nonpayable",
      "type": "function"
    },
    {
      "inputs": [
        {
          "internalType": "bytes32",
          "name": "key",
          "type": "bytes32"
        }
      ],
      "name": "getAddress",
      "outputs": [
        {
          "internalType": "address",
          "name": "",
          "type": "address"
        }
      ],
      "stateMutability": "view",
      "type": "function"
    },
    {
      "inputs": [
        {
          "internalType": "bytes32",
          "name": "key",
          "type": "bytes32"
        }
      ],
      "name": "getAddressArray",
      "outputs": [
        {
          "internalType": "address[]",
          "name": "",
          "type": "address[]"
        }
      ],
      "stateMutability": "view",
      "type": "function"
    },
    {
      "inputs": [
        {
          "internalType": "bytes32",
          "name": "setKey",
          "type": "bytes32"
        }
      ],
      "name": "getAddressCount",
      "outputs": [
        {
          "internalType": "uint256",
          "name": "",
          "type": "uint256"
        }
      ],
      "stateMutability": "view",
      "type": "function"
    },
    {
      "inputs": [
        {
          "internalType": "bytes32",
          "name": "setKey",
          "type": "bytes32"
        },
        {
          "internalType": "uint256",
          "name": "start",
          "type": "uint256"
        },
        {
          "internalType": "uint256",
          "name": "end",
          "type": "uint256"
        }
      ],
      "name": "getAddressValuesAt",
      "outputs": [
        {
          "internalType": "address[]",
          "name": "",
          "type": "address[]"
        }
      ],
      "stateMutability": "view",
      "type": "function"
    },
    {
      "inputs": [
        {
          "internalType": "bytes32",
          "name": "key",
          "type": "bytes32"
        }
      ],
      "name": "getBool",
      "outputs": [
        {
          "internalType": "bool",
          "name": "",
          "type": "bool"
        }
      ],
      "stateMutability": "view",
      "type": "function"
    },
    {
      "inputs": [
        {
          "internalType": "bytes32",
          "name": "key",
          "type": "bytes32"
        }
      ],
      "name": "getBoolArray",
      "outputs": [
        {
          "internalType": "bool[]",
          "name": "",
          "type": "bool[]"
        }
      ],
      "stateMutability": "view",
      "type": "function"
    },
    {
      "inputs": [
        {
          "internalType": "bytes32",
          "name": "key",
          "type": "bytes32"
        }
      ],
      "name": "getBytes32",
      "outputs": [
        {
          "internalType": "bytes32",
          "name": "",
          "type": "bytes32"
        }
      ],
      "stateMutability": "view",
      "type": "function"
    },
    {
      "inputs": [
        {
          "internalType": "bytes32",
          "name": "key",
          "type": "bytes32"
        }
      ],
      "name": "getBytes32Array",
      "outputs": [
        {
          "internalType": "bytes32[]",
          "name": "",
          "type": "bytes32[]"
        }
      ],
      "stateMutability": "view",
      "type": "function"
    },
    {
      "inputs": [
        {
          "internalType": "bytes32",
          "name": "setKey",
          "type": "bytes32"
        }
      ],
      "name": "getBytes32Count",
      "outputs": [
        {
          "internalType": "uint256",
          "name": "",
          "type": "uint256"
        }
      ],
      "stateMutability": "view",
      "type": "function"
    },
    {
      "inputs": [
        {
          "internalType": "bytes32",
          "name": "setKey",
          "type": "bytes32"
        },
        {
          "internalType": "uint256",
          "name": "start",
          "type": "uint256"
        },
        {
          "internalType": "uint256",
          "name": "end",
          "type": "uint256"
        }
      ],
      "name": "getBytes32ValuesAt",
      "outputs": [
        {
          "internalType": "bytes32[]",
          "name": "",
          "type": "bytes32[]"
        }
      ],
      "stateMutability": "view",
      "type": "function"
    },
    {
      "inputs": [
        {
          "internalType": "bytes32",
          "name": "key",
          "type": "bytes32"
        }
      ],
      "name": "getInt",
      "outputs": [
        {
          "internalType": "int256",
          "name": "",
          "type": "int256"
        }
      ],
      "stateMutability": "view",
      "type": "function"
    },
    {
      "inputs": [
        {
          "internalType": "bytes32",
          "name": "key",
          "type": "bytes32"
        }
      ],
      "name": "getIntArray",
      "outputs": [
        {
          "internalType": "int256[]",
          "name": "",
          "type": "int256[]"
        }
      ],
      "stateMutability": "view",
      "type": "function"
    },
    {
      "inputs": [
        {
          "internalType": "bytes32",
          "name": "key",
          "type": "bytes32"
        }
      ],
      "name": "getString",
      "outputs": [
        {
          "internalType": "string",
          "name": "",
          "type": "string"
        }
      ],
      "stateMutability": "view",
      "type": "function"
    },
    {
      "inputs": [
        {
          "internalType": "bytes32",
          "name": "key",
          "type": "bytes32"
        }
      ],
      "name": "getStringArray",
      "outputs": [
        {
          "internalType": "string[]",
          "name": "",
          "type": "string[]"
        }
      ],
      "stateMutability": "view",
      "type": "function"
    },
    {
      "inputs": [
        {
          "internalType": "bytes32",
          "name": "key",
          "type": "bytes32"
        }
      ],
      "name": "getUint",
      "outputs": [
        {
          "internalType": "uint256",
          "name": "",
          "type": "uint256"
        }
      ],
      "stateMutability": "view",
      "type": "function"
    },
    {
      "inputs": [
        {
          "internalType": "bytes32",
          "name": "key",
          "type": "bytes32"
        }
      ],
      "name": "getUintArray",
      "outputs": [
        {
          "internalType": "uint256[]",
          "name": "",
          "type": "uint256[]"
        }
      ],
      "stateMutability": "view",
      "type": "function"
    },
    {
      "inputs": [
        {
          "internalType": "bytes32",
          "name": "setKey",
          "type": "bytes32"
        }
      ],
      "name": "getUintCount",
      "outputs": [
        {
          "internalType": "uint256",
          "name": "",
          "type": "uint256"
        }
      ],
      "stateMutability": "view",
      "type": "function"
    },
    {
      "inputs": [
        {
          "internalType": "bytes32",
          "name": "setKey",
          "type": "bytes32"
        },
        {
          "internalType": "uint256",
          "name": "start",
          "type": "uint256"
        },
        {
          "internalType": "uint256",
          "name": "end",
          "type": "uint256"
        }
      ],
      "name": "getUintValuesAt",
      "outputs": [
        {
          "internalType": "uint256[]",
          "name": "",
          "type": "uint256[]"
        }
      ],
      "stateMutability": "view",
      "type": "function"
    },
    {
      "inputs": [
        {
          "internalType": "bytes32",
          "name": "key",
          "type": "bytes32"
        },
        {
          "internalType": "int256",
          "name": "value",
          "type": "int256"
        }
      ],
      "name": "incrementInt",
      "outputs": [
        {
          "internalType": "int256",
          "name": "",
          "type": "int256"
        }
      ],
      "stateMutability": "nonpayable",
      "type": "function"
    },
    {
      "inputs": [
        {
          "internalType": "bytes32",
          "name": "key",
          "type": "bytes32"
        },
        {
          "internalType": "uint256",
          "name": "value",
          "type": "uint256"
        }
      ],
      "name": "incrementUint",
      "outputs": [
        {
          "internalType": "uint256",
          "name": "",
          "type": "uint256"
        }
      ],
      "stateMutability": "nonpayable",
      "type": "function"
    },
    {
      "inputs": [
        {
          "internalType": "bytes32",
          "name": "",
          "type": "bytes32"
        },
        {
          "internalType": "uint256",
          "name": "",
          "type": "uint256"
        }
      ],
      "name": "intArrayValues",
      "outputs": [
        {
          "internalType": "int256",
          "name": "",
          "type": "int256"
        }
      ],
      "stateMutability": "view",
      "type": "function"
    },
    {
      "inputs": [
        {
          "internalType": "bytes32",
          "name": "",
          "type": "bytes32"
        }
      ],
      "name": "intValues",
      "outputs": [
        {
          "internalType": "int256",
          "name": "",
          "type": "int256"
        }
      ],
      "stateMutability": "view",
      "type": "function"
    },
    {
      "inputs": [
        {
          "internalType": "bytes32",
          "name": "setKey",
          "type": "bytes32"
        },
        {
          "internalType": "address",
          "name": "value",
          "type": "address"
        }
      ],
      "name": "removeAddress",
      "outputs": [],
      "stateMutability": "nonpayable",
      "type": "function"
    },
    {
      "inputs": [
        {
          "internalType": "bytes32",
          "name": "key",
          "type": "bytes32"
        }
      ],
      "name": "removeAddress",
      "outputs": [],
      "stateMutability": "nonpayable",
      "type": "function"
    },
    {
      "inputs": [
        {
          "internalType": "bytes32",
          "name": "key",
          "type": "bytes32"
        }
      ],
      "name": "removeAddressArray",
      "outputs": [],
      "stateMutability": "nonpayable",
      "type": "function"
    },
    {
      "inputs": [
        {
          "internalType": "bytes32",
          "name": "key",
          "type": "bytes32"
        }
      ],
      "name": "removeBool",
      "outputs": [],
      "stateMutability": "nonpayable",
      "type": "function"
    },
    {
      "inputs": [
        {
          "internalType": "bytes32",
          "name": "key",
          "type": "bytes32"
        }
      ],
      "name": "removeBoolArray",
      "outputs": [],
      "stateMutability": "nonpayable",
      "type": "function"
    },
    {
      "inputs": [
        {
          "internalType": "bytes32",
          "name": "setKey",
          "type": "bytes32"
        },
        {
          "internalType": "bytes32",
          "name": "value",
          "type": "bytes32"
        }
      ],
      "name": "removeBytes32",
      "outputs": [],
      "stateMutability": "nonpayable",
      "type": "function"
    },
    {
      "inputs": [
        {
          "internalType": "bytes32",
          "name": "key",
          "type": "bytes32"
        }
      ],
      "name": "removeBytes32",
      "outputs": [],
      "stateMutability": "nonpayable",
      "type": "function"
    },
    {
      "inputs": [
        {
          "internalType": "bytes32",
          "name": "key",
          "type": "bytes32"
        }
      ],
      "name": "removeBytes32Array",
      "outputs": [],
      "stateMutability": "nonpayable",
      "type": "function"
    },
    {
      "inputs": [
        {
          "internalType": "bytes32",
          "name": "key",
          "type": "bytes32"
        }
      ],
      "name": "removeInt",
      "outputs": [],
      "stateMutability": "nonpayable",
      "type": "function"
    },
    {
      "inputs": [
        {
          "internalType": "bytes32",
          "name": "key",
          "type": "bytes32"
        }
      ],
      "name": "removeIntArray",
      "outputs": [],
      "stateMutability": "nonpayable",
      "type": "function"
    },
    {
      "inputs": [
        {
          "internalType": "bytes32",
          "name": "key",
          "type": "bytes32"
        }
      ],
      "name": "removeString",
      "outputs": [],
      "stateMutability": "nonpayable",
      "type": "function"
    },
    {
      "inputs": [
        {
          "internalType": "bytes32",
          "name": "key",
          "type": "bytes32"
        }
      ],
      "name": "removeStringArray",
      "outputs": [],
      "stateMutability": "nonpayable",
      "type": "function"
    },
    {
      "inputs": [
        {
          "internalType": "bytes32",
          "name": "key",
          "type": "bytes32"
        }
      ],
      "name": "removeUint",
      "outputs": [],
      "stateMutability": "nonpayable",
      "type": "function"
    },
    {
      "inputs": [
        {
          "internalType": "bytes32",
          "name": "setKey",
          "type": "bytes32"
        },
        {
          "internalType": "uint256",
          "name": "value",
          "type": "uint256"
        }
      ],
      "name": "removeUint",
      "outputs": [],
      "stateMutability": "nonpayable",
      "type": "function"
    },
    {
      "inputs": [
        {
          "internalType": "bytes32",
          "name": "key",
          "type": "bytes32"
        }
      ],
      "name": "removeUintArray",
      "outputs": [],
      "stateMutability": "nonpayable",
      "type": "function"
    },
    {
      "inputs": [],
      "name": "roleStore",
      "outputs": [
        {
          "internalType": "contract RoleStore",
          "name": "",
          "type": "address"
        }
      ],
      "stateMutability": "view",
      "type": "function"
    },
    {
      "inputs": [
        {
          "internalType": "bytes32",
          "name": "key",
          "type": "bytes32"
        },
        {
          "internalType": "address",
          "name": "value",
          "type": "address"
        }
      ],
      "name": "setAddress",
      "outputs": [
        {
          "internalType": "address",
          "name": "",
          "type": "address"
        }
      ],
      "stateMutability": "nonpayable",
      "type": "function"
    },
    {
      "inputs": [
        {
          "internalType": "bytes32",
          "name": "key",
          "type": "bytes32"
        },
        {
          "internalType": "address[]",
          "name": "value",
          "type": "address[]"
        }
      ],
      "name": "setAddressArray",
      "outputs": [],
      "stateMutability": "nonpayable",
      "type": "function"
    },
    {
      "inputs": [
        {
          "internalType": "bytes32",
          "name": "key",
          "type": "bytes32"
        },
        {
          "internalType": "bool",
          "name": "value",
          "type": "bool"
        }
      ],
      "name": "setBool",
      "outputs": [
        {
          "internalType": "bool",
          "name": "",
          "type": "bool"
        }
      ],
      "stateMutability": "nonpayable",
      "type": "function"
    },
    {
      "inputs": [
        {
          "internalType": "bytes32",
          "name": "key",
          "type": "bytes32"
        },
        {
          "internalType": "bool[]",
          "name": "value",
          "type": "bool[]"
        }
      ],
      "name": "setBoolArray",
      "outputs": [],
      "stateMutability": "nonpayable",
      "type": "function"
    },
    {
      "inputs": [
        {
          "internalType": "bytes32",
          "name": "key",
          "type": "bytes32"
        },
        {
          "internalType": "bytes32",
          "name": "value",
          "type": "bytes32"
        }
      ],
      "name": "setBytes32",
      "outputs": [
        {
          "internalType": "bytes32",
          "name": "",
          "type": "bytes32"
        }
      ],
      "stateMutability": "nonpayable",
      "type": "function"
    },
    {
      "inputs": [
        {
          "internalType": "bytes32",
          "name": "key",
          "type": "bytes32"
        },
        {
          "internalType": "bytes32[]",
          "name": "value",
          "type": "bytes32[]"
        }
      ],
      "name": "setBytes32Array",
      "outputs": [],
      "stateMutability": "nonpayable",
      "type": "function"
    },
    {
      "inputs": [
        {
          "internalType": "bytes32",
          "name": "key",
          "type": "bytes32"
        },
        {
          "internalType": "int256",
          "name": "value",
          "type": "int256"
        }
      ],
      "name": "setInt",
      "outputs": [
        {
          "internalType": "int256",
          "name": "",
          "type": "int256"
        }
      ],
      "stateMutability": "nonpayable",
      "type": "function"
    },
    {
      "inputs": [
        {
          "internalType": "bytes32",
          "name": "key",
          "type": "bytes32"
        },
        {
          "internalType": "int256[]",
          "name": "value",
          "type": "int256[]"
        }
      ],
      "name": "setIntArray",
      "outputs": [],
      "stateMutability": "nonpayable",
      "type": "function"
    },
    {
      "inputs": [
        {
          "internalType": "bytes32",
          "name": "key",
          "type": "bytes32"
        },
        {
          "internalType": "string",
          "name": "value",
          "type": "string"
        }
      ],
      "name": "setString",
      "outputs": [
        {
          "internalType": "string",
          "name": "",
          "type": "string"
        }
      ],
      "stateMutability": "nonpayable",
      "type": "function"
    },
    {
      "inputs": [
        {
          "internalType": "bytes32",
          "name": "key",
          "type": "bytes32"
        },
        {
          "internalType": "string[]",
          "name": "value",
          "type": "string[]"
        }
      ],
      "name": "setStringArray",
      "outputs": [],
      "stateMutability": "nonpayable",
      "type": "function"
    },
    {
      "inputs": [
        {
          "internalType": "bytes32",
          "name": "key",
          "type": "bytes32"
        },
        {
          "internalType": "uint256",
          "name": "value",
          "type": "uint256"
        }
      ],
      "name": "setUint",
      "outputs": [
        {
          "internalType": "uint256",
          "name": "",
          "type": "uint256"
        }
      ],
      "stateMutability": "nonpayable",
      "type": "function"
    },
    {
      "inputs": [
        {
          "internalType": "bytes32",
          "name": "key",
          "type": "bytes32"
        },
        {
          "internalType": "uint256[]",
          "name": "value",
          "type": "uint256[]"
        }
      ],
      "name": "setUintArray",
      "outputs": [],
      "stateMutability": "nonpayable",
      "type": "function"
    },
    {
      "inputs": [
        {
          "internalType": "bytes32",
          "name": "",
          "type": "bytes32"
        },
        {
          "internalType": "uint256",
          "name": "",
          "type": "uint256"
        }
      ],
      "name": "stringArrayValues",
      "outputs": [
        {
          "internalType": "string",
          "name": "",
          "type": "string"
        }
      ],
      "stateMutability": "view",
      "type": "function"
    },
    {
      "inputs": [
        {
          "internalType": "bytes32",
          "name": "",
          "type": "bytes32"
        }
      ],
      "name": "stringValues",
      "outputs": [
        {
          "internalType": "string",
          "name": "",
          "type": "string"
        }
      ],
      "stateMutability": "view",
      "type": "function"
    },
    {
      "inputs": [
        {
          "internalType": "bytes32",
          "name": "",
          "type": "bytes32"
        },
        {
          "internalType": "uint256",
          "name": "",
          "type": "uint256"
        }
      ],
      "name": "uintArrayValues",
      "outputs": [
        {
          "internalType": "uint256",
          "name": "",
          "type": "uint256"
        }
      ],
      "stateMutability": "view",
      "type": "function"
    },
    {
      "inputs": [
        {
          "internalType": "bytes32",
          "name": "",
          "type": "bytes32"
        }
      ],
      "name": "uintValues",
      "outputs": [
        {
          "internalType": "uint256",
          "name": "",
          "type": "uint256"
        }
      ],
      "stateMutability": "view",
      "type": "function"
    }
  ],
  "transactionHash": "0x0",
  "args": [],
  "bytecode": "0x60a0604052348015600f57600080fd5b50604051612937380380612937833981016040819052602c91603c565b6001600160a01b0316608052606a565b600060208284031215604d57600080fd5b81516001600160a01b0381168114606357600080fd5b9392505050565b6080516128ab61008c6000396000818161054c01526117c001526128ab6000f3fe608060405234801561001057600080fd5b50600436106103485760003560e01c80639921c3cc116101bb5780639921c3cc146106e85780639faf6fb6146106fb5780639fe7ac121461070e578063a6ed563e14610721578063a9fcf76b14610741578063abfdcced14610754578063adb353dc14610767578063b348e6391461077a578063b8320a081461078d578063bd02d0f5146107a0578063be43caa3146107c0578063bf498dd3146107d3578063bf7f035a146107e6578063c1dc9182146107f9578063c4f00fde1461080c578063c769d1a11461081f578063c80f4c6214610832578063ca446dd914610845578063cbb093dd14610858578063cc50eadd1461086b578063cf6a87221461087e578063d38eebc714610891578063d52852af146108b1578063dc97d962146108d1578063dd031997146108f1578063e208a70d14610904578063e2a4853a14610917578063e4e36c4e14610858578063e62461ce1461092a578063e7e4148e1461093d578063e98aabc114610950578063ec672cf614610963578063f069052a14610976578063f15caeac14610989578063f3903b9f1461099c578063f51fc0d9146109af57600080fd5b806301677da21461034d578063065f21a714610376578063116bb9291461039757806321f8a721146103b757806322538dae146103f857806322f874641461042157806326004846146104345780632d2899b614610449578063310b88821461046957806332f85bbf1461048c578063340dbab31461049f57806335d4d407146104b257806335ea8059146104c55780633dbacd1a146104d85780633e49bed0146104eb57806342c3bd96146104fe57806344a242b114610511578063499ea50e146105345780634a4a7b04146105475780634e91db081461056e5780635948f733146105815780635eb07dbd146105a15780636339734d146105b457806369721d41146105c75780636e899550146105da5780636fae54f0146105fa5780637026d42c1461060d578063743df325146106205780637ae1cfca1461064057806380aacdcd1461066357806386ac6bdf1461067657806388021a72146106895780638ca498b01461069c57806391d4403c146106af57806393266f9a146106c2578063986e791a146106d5575b600080fd5b61036061035b366004611f8b565b6109c2565b60405161036d9190611fea565b60405180910390f35b610389610384366004611f8b565b610aae565b60405190815260200161036d565b6103aa6103a5366004611f8b565b610acb565b60405161036d919061204f565b6103e06103c5366004611f8b565b6000908152600260205260409020546001600160a01b031690565b6040516001600160a01b03909116815260200161036d565b6103e0610406366004611f8b565b6002602052600090815260409020546001600160a01b031681565b6103e061042f366004612094565b610b4d565b61044761044236600461211f565b610b85565b005b61045c610457366004611f8b565b610bf9565b60405161036d91906121c5565b61047c610477366004612094565b610c5a565b604051901515815260200161036d565b61038961049a36600461226c565b610c79565b6103896104ad366004612094565b610d0a565b6104476104c03660046122c9565b610d52565b6103896104d3366004611f8b565b610d83565b6103896104e6366004612094565b610d9a565b6103896104f9366004612094565b610de3565b61044761050c366004611f8b565b610e0d565b61047c61051f366004611f8b565b60036020526000908152604090205460ff1681565b610447610542366004611f8b565b610e30565b6103e07f000000000000000000000000000000000000000000000000000000000000000081565b61038961057c366004612094565b610e5c565b61059461058f366004611f8b565b610e86565b60405161036d9190612365565b6104476105af36600461211f565b610ef1565b6103896105c2366004612094565b610f22565b6104476105d53660046123c2565b610f53565b6105ed6105e83660046123ee565b610f7d565b60405161036d9190612434565b610389610608366004612094565b610fb1565b61045c61061b366004612447565b610ff9565b61038961062e366004611f8b565b60016020526000908152604090205481565b61047c61064e366004611f8b565b60009081526003602052604090205460ff1690565b61047c610671366004612094565b61101d565b61045c610684366004611f8b565b611060565b610447610697366004612473565b6110c0565b6103896106aa366004612094565b6110f1565b61047c6106bd366004612094565b611156565b6104476106d0366004612094565b61116e565b6105ed6106e3366004611f8b565b611198565b6104476106f6366004612094565b611230565b610447610709366004611f8b565b61125a565b61044761071c366004611f8b565b61128a565b61038961072f366004611f8b565b60009081526005602052604090205490565b61044761074f36600461211f565b6112b4565b61047c610762366004612534565b6112e5565b610447610775366004612094565b611318565b6104476107883660046123c2565b611342565b6105ed61079b366004612094565b61136c565b6103896107ae366004611f8b565b60009081526020819052604090205490565b6104476107ce366004611f8b565b611425565b6103896107e1366004612094565b61144e565b6104476107f4366004611f8b565b61146a565b610447610807366004611f8b565b611493565b61038961081a366004612094565b6114bc565b61047c61082d3660046123c2565b6114d8565b610447610840366004612094565b6114f0565b6103e06108533660046123c2565b61151a565b610389610866366004612094565b61155a565b610447610879366004611f8b565b611588565b61044761088c366004611f8b565b6115b1565b61038961089f366004611f8b565b60006020819052908152604090205481565b6103896108bf366004611f8b565b60056020526000908152604090205481565b6103896108df366004611f8b565b60009081526001602052604090205490565b61045c6108ff366004611f8b565b6115d4565b610447610912366004611f8b565b611634565b610389610925366004612094565b61165d565b610447610938366004611f8b565b611687565b61059461094b366004612447565b6116aa565b61038961095e366004612094565b6116c6565b610447610971366004612564565b6116f4565b61045c610984366004612447565b611725565b6105ed610997366004611f8b565b611741565b6103896109aa366004611f8b565b61175a565b6104476109bd366004611f8b565b611771565b6060600a6000838152602001908152602001600020805480602002602001604051908101604052809291908181526020016000905b82821015610aa3578382906000526020600020018054610a16906125fe565b80601f0160208091040260200160405190810160405280929190818152602001828054610a42906125fe565b8015610a8f5780601f10610a6457610100808354040283529160200191610a8f565b820191906000526020600020905b815481529060010190602001808311610a7257829003601f168201915b5050505050815260200190600101906109f7565b505050509050919050565b6000818152600e60205260408120610ac59061179a565b92915050565b600081815260096020908152604091829020805483518184028101840190945280845260609392830182828015610b4157602002820191906000526020600020906000905b825461010083900a900460ff161515815260206001928301818104948501949093039092029101808411610b105790505b50505050509050919050565b60086020528160005260406000208181548110610b6957600080fd5b6000918252602090912001546001600160a01b03169150829050565b610bd5604051602001610b9790612638565b604051602081830303815290604052805190602001206040518060400160405280600a81526020016921a7a72a2927a62622a960b11b8152506117a4565b6000828152600b602090815260409091208251610bf492840190611d34565b505050565b600081815260076020908152604091829020805483518184028101840190945280845260609392830182828015610b4157602002820191906000526020600020905b815481526020019060010190808311610c3b5750505050509050919050565b6000828152600e60205260408120610c729083611858565b9392505050565b6000610c8d604051602001610b9790612638565b6000848152602081905260408120549084128015610cba575080610cb8610cb386612672565b611864565b115b15610ce2578260405162461bcd60e51b8152600401610cd99190612434565b60405180910390fd5b6000610cee82866118ba565b6000878152602081905260409020819055925050509392505050565b6000610d1e604051602001610b9790612638565b600083815260208190526040812054610d3890849061268e565b600085815260208190526040902081905591505092915050565b610d64604051602001610b9790612638565b60008281526009602090815260409091208251610bf492840190611d7b565b6000818152600d60205260408120610ac59061179a565b6000610dae604051602001610b9790612638565b60008381526020819052604081205490610dc8848361268e565b60008681526020819052604090208190559250505092915050565b6000610df7604051602001610b9790612638565b5060009182526001602052604090912081905590565b610e1f604051602001610b9790612638565b600090815260208190526040812055565b610e42604051602001610b9790612638565b6000818152600760205260408120610e5991611e1b565b50565b6000610e70604051602001610b9790612638565b5060009182526005602052604090912081905590565b600081815260086020908152604091829020805483518184028101840190945280845260609392830182828015610b4157602002820191906000526020600020905b81546001600160a01b03168152600190910190602001808311610ec85750505050509050919050565b610f03604051602001610b9790612638565b60008281526006602090815260409091208251610bf492840190611d34565b60076020528160005260406000208181548110610f3e57600080fd5b90600052602060002001600091509150505481565b610f65604051602001610b9790612638565b6000828152600d60205260409020610bf490826118f1565b6060610f91604051602001610b9790612638565b6000838152600460205260409020610fa983826126ef565b509092915050565b6000610fc5604051602001610b9790612638565b600083815260016020526040812054610fdf9084906127ad565b600085815260016020526040902081905591505092915050565b6000838152600e60205260409020606090611015908484611906565b949350505050565b6009602052816000526040600020818154811061103957600080fd5b9060005260206000209060209182820401919006915091509054906101000a900460ff1681565b600081815260066020908152604091829020805483518184028101840190945280845260609392830182828015610b415760200282019190600052602060002090815481526020019060010190808311610c3b5750505050509050919050565b6110d2604051602001610b9790612638565b6000828152600a602090815260409091208251610bf492840190611e39565b6000611105604051602001610b9790612638565b600083815260208190526040812054908312801561112d57508061112b610cb385612672565b115b1561114a5750506000828152602081905260408120819055610ac5565b6000610dc882856118ba565b6000828152600c60205260408120610c729083611858565b611180604051602001610b9790612638565b6000828152600e60205260409020610bf490826119e0565b60008181526004602052604090208054606091906111b5906125fe565b80601f01602080910402602001604051908101604052809291908181526020018280546111e1906125fe565b8015610b415780601f1061120357610100808354040283529160200191610b41565b820191906000526020600020905b8154815290600101906020018083116112115750939695505050505050565b611242604051602001610b9790612638565b6000828152600c60205260409020610bf490826119e0565b61126c604051602001610b9790612638565b600090815260026020526040902080546001600160a01b0319169055565b61129c604051602001610b9790612638565b6000908152600360205260409020805460ff19169055565b6112c6604051602001610b9790612638565b60008281526007602090815260409091208251610bf492840190611d34565b60006112f9604051602001610b9790612638565b50600091825260036020526040909120805460ff191682151517905590565b61132a604051602001610b9790612638565b6000828152600e60205260409020610bf490826119ec565b611354604051602001610b9790612638565b6000828152600d60205260409020610bf490826119f8565b600a602052816000526040600020818154811061138857600080fd5b906000526020600020016000915091505080546113a4906125fe565b80601f01602080910402602001604051908101604052809291908181526020018280546113d0906125fe565b801561141d5780601f106113f25761010080835404028352916020019161141d565b820191906000526020600020905b81548152906001019060200180831161140057829003601f168201915b505050505081565b611437604051602001610b9790612638565b6000818152600660205260408120610e5991611e1b565b600b6020528160005260406000208181548110610f3e57600080fd5b61147c604051602001610b9790612638565b6000818152600b60205260408120610e5991611e1b565b6114a5604051602001610b9790612638565b6000818152600860205260408120610e5991611e1b565b60066020528160005260406000208181548110610f3e57600080fd5b6000828152600d60205260408120610c729083611a0d565b611502604051602001610b9790612638565b6000828152600c60205260409020610bf490826119ec565b600061152e604051602001610b9790612638565b5060009182526002602052604090912080546001600160a01b0319166001600160a01b03831617905590565b600061156e604051602001610b9790612638565b600083815260016020526040812054610fdf9084906127cd565b61159a604051602001610b9790612638565b6000818152600460205260408120610e5991611e8b565b6115c3604051602001610b9790612638565b600090815260056020526040812055565b6000818152600b6020908152604091829020805483518184028101840190945280845260609392830182828015610b415760200282019190600052602060002090815481526020019060010190808311610c3b5750505050509050919050565b611646604051602001610b9790612638565b6000818152600a60205260408120610e5991611ec5565b6000611671604051602001610b9790612638565b5060009182526020829052604090912081905590565b611699604051602001610b9790612638565b600090815260016020526040812055565b6000838152600d60205260409020606090611015908484611a22565b60006116da604051602001610b9790612638565b600083815260208190526040812054610d389084906127f5565b611706604051602001610b9790612638565b60008281526008602090815260409091208251610bf492840190611ee3565b6000838152600c60205260409020606090611015908484611adb565b600460205260009081526040902080546113a4906125fe565b6000818152600c60205260408120610ac59061179a565b611783604051602001610b9790612638565b6000818152600960205260408120610e5991611f38565b6000610ac5825490565b60405163ac4ab3fb60e01b8152336004820152602481018390527f00000000000000000000000000000000000000000000000000000000000000006001600160a01b03169063ac4ab3fb90604401602060405180830381865afa15801561180f573d6000803e3d6000fd5b505050506040513d601f19601f820116820180604052508101906118339190612808565b61185457338160405163a35b150b60e01b8152600401610cd9929190612825565b5050565b6000610c728383611b87565b6000808212156118b65760405162461bcd60e51b815260206004820181905260248201527f53616665436173743a2076616c7565206d75737420626520706f7369746976656044820152606401610cd9565b5090565b6000808213156118de576118cd82611b9f565b6118d7908461268e565b9050610ac5565b6118e782611b9f565b610c7290846127f5565b6000610c72836001600160a01b038416611bb2565b60606119118461179a565b831061192c5750604080516000815260208101909152610c72565b60006119378561179a565b905080831115611945578092505b600061195185856127f5565b6001600160401b03811115611968576119686120b6565b604051908082528060200260200182016040528015611991578160200160208202803683370190505b509050845b848110156119d6576119a88782611cac565b826119b388846127f5565b815181106119c3576119c3612849565b6020908102919091010152600101611996565b5095945050505050565b6000610c728383611bb2565b6000610c728383611cb8565b6000610c72836001600160a01b038416611cb8565b6000610c72836001600160a01b038416611b87565b60606000611a2f8561179a565b905080831115611a3d578092505b6000611a4985856127f5565b6001600160401b03811115611a6057611a606120b6565b604051908082528060200260200182016040528015611a89578160200160208202803683370190505b509050845b848110156119d657611aa08782611cac565b82611aab88846127f5565b81518110611abb57611abb612849565b6001600160a01b0390921660209283029190910190910152600101611a8e565b60606000611ae88561179a565b905080831115611af6578092505b6000611b0285856127f5565b6001600160401b03811115611b1957611b196120b6565b604051908082528060200260200182016040528015611b42578160200160208202803683370190505b509050845b848110156119d657611b598782611d02565b82611b6488846127f5565b81518110611b7457611b74612849565b6020908102919091010152600101611b47565b60009081526001919091016020526040902054151590565b6000808212156118b65781600003610ac5565b60008181526001830160205260408120548015611c9b576000611bd66001836127f5565b8554909150600090611bea906001906127f5565b9050818114611c4f576000866000018281548110611c0a57611c0a612849565b9060005260206000200154905080876000018481548110611c2d57611c2d612849565b6000918252602080832090910192909255918252600188019052604090208390555b8554869080611c6057611c6061285f565b600190038181906000526020600020016000905590558560010160008681526020019081526020016000206000905560019350505050610ac5565b6000915050610ac5565b5092915050565b6000610c728383611d0a565b6000611cc48383611b87565b611cfa57508154600181810184556000848152602080822090930184905584548482528286019093526040902091909155610ac5565b506000610ac5565b6000610c7283835b6000826000018281548110611d2157611d21612849565b9060005260206000200154905092915050565b828054828255906000526020600020908101928215611d6f579160200282015b82811115611d6f578251825591602001919060010190611d54565b506118b6929150611f59565b82805482825590600052602060002090601f01602090048101928215611d6f5791602002820160005b83821115611de157835183826101000a81548160ff0219169083151502179055509260200192600101602081600001049283019260010302611da4565b8015611e0e5782816101000a81549060ff0219169055600101602081600001049283019260010302611de1565b50506118b6929150611f59565b5080546000825590600052602060002090810190610e599190611f59565b828054828255906000526020600020908101928215611e7f579160200282015b82811115611e7f5782518290611e6f90826126ef565b5091602001919060010190611e59565b506118b6929150611f6e565b508054611e97906125fe565b6000825580601f10611ea7575050565b601f016020900490600052602060002090810190610e599190611f59565b5080546000825590600052602060002090810190610e599190611f6e565b828054828255906000526020600020908101928215611d6f579160200282015b82811115611d6f57825182546001600160a01b0319166001600160a01b03909116178255602090920191600190910190611f03565b50805460008255601f016020900490600052602060002090810190610e5991905b5b808211156118b65760008155600101611f5a565b808211156118b6576000611f828282611e8b565b50600101611f6e565b600060208284031215611f9d57600080fd5b5035919050565b6000815180845260005b81811015611fca57602081850181015186830182015201611fae565b506000602082860101526020601f19601f83011685010191505092915050565b6000602082016020835280845180835260408501915060408160051b86010192506020860160005b8281101561204357603f1987860301845261202e858351611fa4565b94506020938401939190910190600101612012565b50929695505050505050565b602080825282518282018190526000918401906040840190835b818110156120895783511515835260209384019390920191600101612069565b509095945050505050565b600080604083850312156120a757600080fd5b50508035926020909101359150565b634e487b7160e01b600052604160045260246000fd5b604051601f8201601f191681016001600160401b03811182821017156120f4576120f46120b6565b604052919050565b60006001600160401b03821115612115576121156120b6565b5060051b60200190565b6000806040838503121561213257600080fd5b8235915060208301356001600160401b0381111561214f57600080fd5b8301601f8101851361216057600080fd5b803561217361216e826120fc565b6120cc565b8082825260208201915060208360051b85010192508783111561219557600080fd5b6020840193505b828410156121b757833582526020938401939091019061219c565b809450505050509250929050565b602080825282518282018190526000918401906040840190835b818110156120895783518352602093840193909201916001016121df565b600082601f83011261220e57600080fd5b81356001600160401b03811115612227576122276120b6565b61223a601f8201601f19166020016120cc565b81815284602083860101111561224f57600080fd5b816020850160208301376000918101602001919091529392505050565b60008060006060848603121561228157600080fd5b833592506020840135915060408401356001600160401b038111156122a557600080fd5b6122b1868287016121fd565b9150509250925092565b8015158114610e5957600080fd5b600080604083850312156122dc57600080fd5b8235915060208301356001600160401b038111156122f957600080fd5b8301601f8101851361230a57600080fd5b803561231861216e826120fc565b8082825260208201915060208360051b85010192508783111561233a57600080fd5b6020840193505b828410156121b7578335612354816122bb565b825260209384019390910190612341565b602080825282518282018190526000918401906040840190835b818110156120895783516001600160a01b031683526020938401939092019160010161237f565b80356001600160a01b03811681146123bd57600080fd5b919050565b600080604083850312156123d557600080fd5b823591506123e5602084016123a6565b90509250929050565b6000806040838503121561240157600080fd5b8235915060208301356001600160401b0381111561241e57600080fd5b61242a858286016121fd565b9150509250929050565b602081526000610c726020830184611fa4565b60008060006060848603121561245c57600080fd5b505081359360208301359350604090920135919050565b6000806040838503121561248657600080fd5b8235915060208301356001600160401b038111156124a357600080fd5b8301601f810185136124b457600080fd5b80356124c261216e826120fc565b8082825260208201915060208360051b8501019250878311156124e457600080fd5b602084015b838110156125255780356001600160401b0381111561250757600080fd5b6125168a6020838901016121fd565b845250602092830192016124e9565b50809450505050509250929050565b6000806040838503121561254757600080fd5b823591506020830135612559816122bb565b809150509250929050565b6000806040838503121561257757600080fd5b8235915060208301356001600160401b0381111561259457600080fd5b8301601f810185136125a557600080fd5b80356125b361216e826120fc565b8082825260208201915060208360051b8501019250878311156125d557600080fd5b6020840193505b828410156121b7576125ed846123a6565b8252602093840193909101906125dc565b600181811c9082168061261257607f821691505b60208210810361263257634e487b7160e01b600052602260045260246000fd5b50919050565b6020808252600a908201526921a7a72a2927a62622a960b11b604082015260600190565b634e487b7160e01b600052601160045260246000fd5b6000600160ff1b82016126875761268761265c565b5060000390565b80820180821115610ac557610ac561265c565b601f821115610bf457806000526020600020601f840160051c810160208510156126c85750805b601f840160051c820191505b818110156126e857600081556001016126d4565b5050505050565b81516001600160401b03811115612708576127086120b6565b61271c8161271684546125fe565b846126a1565b6020601f82116001811461275057600083156127385750848201515b600019600385901b1c1916600184901b1784556126e8565b600084815260208120601f198516915b828110156127805787850151825560209485019460019092019101612760565b508482101561279e5786840151600019600387901b60f8161c191681555b50505050600190811b01905550565b8181036000831280158383131683831282161715611ca557611ca561265c565b80820182811260008312801582168215821617156127ed576127ed61265c565b505092915050565b81810381811115610ac557610ac561265c565b60006020828403121561281a57600080fd5b8151610c72816122bb565b6001600160a01b038316815260406020820181905260009061101590830184611fa4565b634e487b7160e01b600052603260045260246000fd5b634e487b7160e01b600052603160045260246000fdfea2646970667358221220f8802aa333a88918019e2c03ffa8d9c9479573f917d5953bf37567bc78c5d48e64736f6c634300081d0033",
  "devdoc": {},
  "userdoc": {},
  "storageLayout": null,
  "notes": "Central storage for all protocol configuration and state"
}