{
  "address": "0x8644aB2924A5Be1bD6389aA4593dbB277089cD1E",
  "abi": [
    {
      "inputs": [
        {
          "internalType": "contract RoleStore",
          "name": "_roleStore",
          "type": "address"
        },
        {
          "internalType": "contract EventEmitter",
          "name": "_eventEmitter",
          "type": "address"
        }
      ],
      "stateMutability": "nonpayable",
      "type": "constructor"
    },
    {
      "inputs": [
        {
          "internalType": "address",
          "name": "msgSender",
          "type": "address"
        },
        {
          "internalType": "string",
          "name": "role",
          "type": "string"
        }
      ],
      "name": "Unauthorized",
      "type": "error"
    },
    {
      "inputs": [
        {
          "internalType": "address",
          "name": "account",
          "type": "address"
        }
      ],
      "name": "addSigner",
      "outputs": [],
      "stateMutability": "nonpayable",
      "type": "function"
    },
    {
      "inputs": [],
      "name": "eventEmitter",
      "outputs": [
        {
          "internalType": "contract EventEmitter",
          "name": "",
          "type": "address"
        }
      ],
      "stateMutability": "view",
      "type": "function"
    },
    {
      "inputs": [
        {
          "internalType": "uint256",
          "name": "index",
          "type": "uint256"
        }
      ],
      "name": "getSigner",
      "outputs": [
        {
          "internalType": "address",
          "name": "",
          "type": "address"
        }
      ],
      "stateMutability": "view",
      "type": "function"
    },
    {
      "inputs": [],
      "name": "getSignerCount",
      "outputs": [
        {
          "internalType": "uint256",
          "name": "",
          "type": "uint256"
        }
      ],
      "stateMutability": "view",
      "type": "function"
    },
    {
      "inputs": [
        {
          "internalType": "uint256",
          "name": "start",
          "type": "uint256"
        },
        {
          "internalType": "uint256",
          "name": "end",
          "type": "uint256"
        }
      ],
      "name": "getSigners",
      "outputs": [
        {
          "internalType": "address[]",
          "name": "",
          "type": "address[]"
        }
      ],
      "stateMutability": "view",
      "type": "function"
    },
    {
      "inputs": [
        {
          "internalType": "address",
          "name": "account",
          "type": "address"
        }
      ],
      "name": "removeSigner",
      "outputs": [],
      "stateMutability": "nonpayable",
      "type": "function"
    },
    {
      "inputs": [],
      "name": "roleStore",
      "outputs": [
        {
          "internalType": "contract RoleStore",
          "name": "",
          "type": "address"
        }
      ],
      "stateMutability": "view",
      "type": "function"
    }
  ],
  "transactionHash": "0x0",
  "args": [],
  "bytecode": "0x60c060405234801561001057600080fd5b5060405161124638038061124683398101604081905261002f9161005e565b6001600160a01b039182166080521660a052610098565b6001600160a01b038116811461005b57600080fd5b50565b6000806040838503121561007157600080fd5b825161007c81610046565b602084015190925061008d81610046565b809150509250929050565b60805160a0516111766100d06000396000818160e3015281816101ee015261031201526000818160bc015261038201526111766000f3fe608060405234801561001057600080fd5b506004361061006d5760003560e01c80630e316ab7146100725780633ffefe4e146100875780634a4a7b04146100b75780639ff78c30146100de578063b715be8114610105578063daf6faa61461011b578063eb12d61e1461013b575b600080fd5b610085610080366004610851565b61014e565b005b61009a61009536600461087a565b610278565b6040516001600160a01b0390911681526020015b60405180910390f35b61009a7f000000000000000000000000000000000000000000000000000000000000000081565b61009a7f000000000000000000000000000000000000000000000000000000000000000081565b61010d61028a565b6040519081526020016100ae565b61012e610129366004610893565b61029b565b6040516100ae91906108b5565b610085610149366004610851565b6102b0565b61019e60405160200161016090610901565b604051602081830303815290604052805190602001206040518060400160405280600a81526020016921a7a72a2927a62622a960b11b815250610366565b6101a9600082610423565b506101b2610760565b80516101bf906001610438565b6040805180820190915260078152661858d8dbdd5b9d60ca1b602082015281516101ec916000908561049d565b7f00000000000000000000000000000000000000000000000000000000000000006001600160a01b03166324de01e4610224846104fa565b836040518363ffffffff1660e01b8152600401610242929190611017565b600060405180830381600087803b15801561025c57600080fd5b505af1158015610270573d6000803e3d6000fd5b505050505050565b60006102848183610506565b92915050565b60006102966000610512565b905090565b60606102a96000848461051c565b9392505050565b6102c260405160200161016090610901565b6102cd6000826105df565b506102d6610760565b80516102e3906001610438565b6040805180820190915260078152661858d8dbdd5b9d60ca1b60208201528151610310916000908561049d565b7f00000000000000000000000000000000000000000000000000000000000000006001600160a01b03166324de01e4610348846104fa565b836040518363ffffffff1660e01b815260040161024292919061105c565b60405163ac4ab3fb60e01b8152336004820152602481018390527f00000000000000000000000000000000000000000000000000000000000000006001600160a01b03169063ac4ab3fb90604401602060405180830381865afa1580156103d1573d6000803e3d6000fd5b505050506040513d601f19601f820116820180604052508101906103f59190611097565b61041f57338160405163a35b150b60e01b81526004016104169291906110b9565b60405180910390fd5b5050565b60006102a9836001600160a01b0384166105f4565b806001600160401b03811115610450576104506110dd565b60405190808252806020026020018201604052801561049657816020015b60408051808201909152606081526000602082015281526020019060019003908161046e5790505b5090915250565b81846000015184815181106104b4576104b46110f3565b60200260200101516000018190525080846000015184815181106104da576104da6110f3565b6020908102919091018101516001600160a01b0390921691015250505050565b6001600160a01b031690565b60006102a983836106e7565b6000610284825490565b6060600061052985610512565b905080831115610537578092505b60006105438585611109565b6001600160401b0381111561055a5761055a6110dd565b604051908082528060200260200182016040528015610583578160200160208202803683370190505b509050845b848110156105d55761059a8782610506565b826105a58884611109565b815181106105b5576105b56110f3565b6001600160a01b0390921660209283029190910190910152600101610588565b5095945050505050565b60006102a9836001600160a01b038416610711565b600081815260018301602052604081205480156106dd576000610618600183611109565b855490915060009061062c90600190611109565b905081811461069157600086600001828154811061064c5761064c6110f3565b906000526020600020015490508087600001848154811061066f5761066f6110f3565b6000918252602080832090910192909255918252600188019052604090208390555b85548690806106a2576106a261112a565b600190038181906000526020600020016000905590558560010160008681526020019081526020016000206000905560019350505050610284565b6000915050610284565b60008260000182815481106106fe576106fe6110f3565b9060005260206000200154905092915050565b600081815260018301602052604081205461075857508154600181810184556000848152602080822090930184905584548482528286019093526040902091909155610284565b506000610284565b604080516101208101909152606060e08201818152610100830191909152819081526020016107a2604051806040016040528060608152602001606081525090565b81526020016107c4604051806040016040528060608152602001606081525090565b81526020016107e6604051806040016040528060608152602001606081525090565b8152602001610808604051806040016040528060608152602001606081525090565b815260200161082a604051806040016040528060608152602001606081525090565b815260200161084c604051806040016040528060608152602001606081525090565b905290565b60006020828403121561086357600080fd5b81356001600160a01b03811681146102a957600080fd5b60006020828403121561088c57600080fd5b5035919050565b600080604083850312156108a657600080fd5b50508035926020909101359150565b602080825282518282018190526000918401906040840190835b818110156108f65783516001600160a01b03168352602093840193909201916001016108cf565b509095945050505050565b6020808252600a908201526921a7a72a2927a62622a960b11b604082015260600190565b6000815180845260005b8181101561094b5760208185018101518683018201520161092f565b506000602082860101526020601f19601f83011685010191505092915050565b600082825180855260208501945060208160051b8301016020850160005b83811015610a1257601f1985840301885281518051604085526109af6040860182610925565b6020928301518682038785015280518083529084019360009350909101905b808310156109f95783516001600160a01b0316825260209384019360019390930192909101906109ce565b5060209a8b019a90955093909301925050600101610989565b50909695505050505050565b60006040830182516040855281815180845260608701915060608160051b880101935060208301925060005b81811015610a9857605f198886030183528351805160408752610a706040880182610925565b6020928301516001600160a01b03169783019790975250938401939290920191600101610a4a565b5050505060208301518482036020860152610ab3828261096b565b95945050505050565b600082825180855260208501945060208160051b8301016020850160005b83811015610a1257601f198584030188528151805160408552610b006040860182610925565b6020928301518682038785015280518083529084019360009350909101905b80831015610b425783518252602082019150602084019350600183019250610b1f565b5060209a8b019a90955093909301925050600101610ada565b60006040830182516040855281815180845260608701915060608160051b880101935060208301925060005b81811015610bcc57605f198886030183528351805160408752610bad6040880182610925565b6020928301519783019790975250938401939290920191600101610b87565b5050505060208301518482036020860152610ab38282610abc565b60006040830182516040855281815180845260608701915060608160051b880101935060208301925060005b81811015610bcc57605f198886030183528351805160408752610c396040880182610925565b6020928301519783019790975250938401939290920191600101610c13565b600082825180855260208501945060208160051b8301016020850160005b83811015610a1257601f198584030188528151805160408552610c9c6040860182610925565b6020928301518682038785015280518083529084019360009350909101905b80831015610ce057835115158252602082019150602084019350600183019250610cbb565b5060209a8b019a90955093909301925050600101610c76565b60006040830182516040855281815180845260608701915060608160051b880101935060208301925060005b81811015610d6c57605f198886030183528351805160408752610d4b6040880182610925565b60209283015115159783019790975250938401939290920191600101610d25565b5050505060208301518482036020860152610ab38282610c58565b600082825180855260208501945060208160051b8301016020850160005b83811015610a1257601f198584030188528151805160408552610dcb6040860182610925565b6020928301518682038785015280518083529084019391925081830191600582901b84010160005b82811015610e2457601f19858303018452610e0f828751610925565b60209687019694909401939150600101610df3565b508097505050505050602082019150602088019750600181019050610da5565b60006040830182516040855281815180845260608701915060608160051b880101935060208301925060005b81811015610ec857605f198886030183528351805160408752610e966040880182610925565b9050602082015191508681036020880152610eb18183610925565b965050506020938401939290920191600101610e70565b5050505060208301518482036020860152610ab38282610d87565b60006040830182516040855281815180845260608701915060608160051b880101935060208301925060005b81811015610ec857605f198886030183528351805160408752610f356040880182610925565b9050602082015191508681036020880152610f508183610925565b965050506020938401939290920191600101610f0f565b6000815160e08452610f7c60e0850182610a1e565b905060208301518482036020860152610f958282610b5b565b91505060408301518482036040860152610faf8282610be7565b91505060608301518482036060860152610fc98282610cf9565b91505060808301518482036080860152610fe38282610be7565b91505060a083015184820360a0860152610ffd8282610e44565b91505060c083015184820360c0860152610ab38282610ee3565b60608152600d60608201526c14da59db995c94995b5bdd9959609a1b608082015282602082015260a06040820152600061105460a0830184610f67565b949350505050565b60608152600b60608201526a14da59db995c905919195960aa1b608082015282602082015260a06040820152600061105460a0830184610f67565b6000602082840312156110a957600080fd5b815180151581146102a957600080fd5b6001600160a01b038316815260406020820181905260009061105490830184610925565b634e487b7160e01b600052604160045260246000fd5b634e487b7160e01b600052603260045260246000fd5b8181038181111561028457634e487b7160e01b600052601160045260246000fd5b634e487b7160e01b600052603160045260246000fdfea264697066735822122075678e795c245bd327949e69bab9b5517fb4ec3b3f5e3b72f916ffca100b207f64736f6c634300081d0033",
  "devdoc": {},
  "userdoc": {},
  "storageLayout": null,
  "notes": "Oracle configuration store"
}