{
  "address": "0x81FBD321168655914C895ec63583140aB3eB2341",
  "abi": [
    {
      "inputs": [],
      "stateMutability": "nonpayable",
      "type": "constructor"
    },
    {
      "inputs": [],
      "name": "ThereMustBeAtLeastOneRoleAdmin",
      "type": "error"
    },
    {
      "inputs": [],
      "name": "ThereMustBeAtLeastOneTimelockMultiSig",
      "type": "error"
    },
    {
      "inputs": [
        {
          "internalType": "address",
          "name": "msgSender",
          "type": "address"
        },
        {
          "internalType": "string",
          "name": "role",
          "type": "string"
        }
      ],
      "name": "Unauthorized",
      "type": "error"
    },
    {
      "inputs": [],
      "name": "getRoleCount",
      "outputs": [
        {
          "internalType": "uint256",
          "name": "",
          "type": "uint256"
        }
      ],
      "stateMutability": "view",
      "type": "function"
    },
    {
      "inputs": [
        {
          "internalType": "bytes32",
          "name": "roleKey",
          "type": "bytes32"
        }
      ],
      "name": "getRoleMemberCount",
      "outputs": [
        {
          "internalType": "uint256",
          "name": "",
          "type": "uint256"
        }
      ],
      "stateMutability": "view",
      "type": "function"
    },
    {
      "inputs": [
        {
          "internalType": "bytes32",
          "name": "roleKey",
          "type": "bytes32"
        },
        {
          "internalType": "uint256",
          "name": "start",
          "type": "uint256"
        },
        {
          "internalType": "uint256",
          "name": "end",
          "type": "uint256"
        }
      ],
      "name": "getRoleMembers",
      "outputs": [
        {
          "internalType": "address[]",
          "name": "",
          "type": "address[]"
        }
      ],
      "stateMutability": "view",
      "type": "function"
    },
    {
      "inputs": [
        {
          "internalType": "uint256",
          "name": "start",
          "type": "uint256"
        },
        {
          "internalType": "uint256",
          "name": "end",
          "type": "uint256"
        }
      ],
      "name": "getRoles",
      "outputs": [
        {
          "internalType": "bytes32[]",
          "name": "",
          "type": "bytes32[]"
        }
      ],
      "stateMutability": "view",
      "type": "function"
    },
    {
      "inputs": [
        {
          "internalType": "address",
          "name": "account",
          "type": "address"
        },
        {
          "internalType": "bytes32",
          "name": "roleKey",
          "type": "bytes32"
        }
      ],
      "name": "grantRole",
      "outputs": [],
      "stateMutability": "nonpayable",
      "type": "function"
    },
    {
      "inputs": [
        {
          "internalType": "address",
          "name": "account",
          "type": "address"
        },
        {
          "internalType": "bytes32",
          "name": "roleKey",
          "type": "bytes32"
        }
      ],
      "name": "hasRole",
      "outputs": [
        {
          "internalType": "bool",
          "name": "",
          "type": "bool"
        }
      ],
      "stateMutability": "view",
      "type": "function"
    },
    {
      "inputs": [
        {
          "internalType": "address",
          "name": "account",
          "type": "address"
        },
        {
          "internalType": "bytes32",
          "name": "roleKey",
          "type": "bytes32"
        }
      ],
      "name": "revokeRole",
      "outputs": [],
      "stateMutability": "nonpayable",
      "type": "function"
    }
  ],
  "transactionHash": "0x0",
  "args": [],
  "bytecode": "0x608060405234801561001057600080fd5b5061006433604051602001610043906020808252600a90820152692927a622afa0a226a4a760b11b604082015260600190565b6040516020818303038152906040528051906020012061006960201b60201c565b610133565b6100746000826100be565b50600081815260026020526040902061008d90836100d3565b506001600160a01b03909116600090815260036020908152604080832093835292905220805460ff19166001179055565b60006100ca83836100e4565b90505b92915050565b60006100ca836001600160a01b0384165b600081815260018301602052604081205461012b575081546001818101845560008481526020808220909301849055845484825282860190935260409020919091556100cd565b5060006100cd565b6108f0806101426000396000f3fe608060405234801561001057600080fd5b506004361061006d5760003560e01c8063208dd1ff146100725780632a861f5714610087578063821c1898146100b057806383d33319146100d0578063ab2742dc146100e6578063ac4ab3fb146100f9578063ca15c8731461011c575b600080fd5b6100856100803660046106e2565b61012f565b005b61009a61009536600461071a565b610193565b6040516100a79190610746565b60405180910390f35b6100c36100be366004610792565b6101b7565b6040516100a791906107b4565b6100d86101ce565b6040519081526020016100a7565b6100856100f43660046106e2565b6101df565b61010c6101073660046106e2565b61021b565b60405190151581526020016100a7565b6100d861012a3660046107ec565b610246565b61015d3360405160200161014290610822565b6040516020818303038152906040528051906020012061021b565b610185573360405163a35b150b60e01b815260040161017c9190610834565b60405180910390fd5b61018f828261025d565b5050565b60008381526002602052604090206060906101af908484610366565b949350505050565b60606101c560008484610429565b90505b92915050565b60006101da60006104d5565b905090565b6101f23360405160200161014290610822565b610211573360405163a35b150b60e01b815260040161017c9190610834565b61018f82826104df565b6001600160a01b03919091166000908152600360209081526040808320938352929052205460ff1690565b60008181526002602052604081206101c8906104d5565b60008181526002602052604090206102759083610534565b506001600160a01b03821660009081526003602090815260408083208484528252808320805460ff19169055600290915290206102b1906104d5565b60000361018f576040516020016102c790610822565b6040516020818303038152906040528051906020012081036102fc57604051635bc1e44560e11b815260040160405180910390fd5b6040516020016103319060208082526011908201527054494d454c4f434b5f4d554c544953494760781b604082015260600190565b60405160208183030381529060405280519060200120810361018f57604051630282b5b760e41b815260040160405180910390fd5b60606000610373856104d5565b905080831115610381578092505b600061038d8585610857565b6001600160401b038111156103a4576103a4610878565b6040519080825280602002602001820160405280156103cd578160200160208202803683370190505b509050845b8481101561041f576103e48782610549565b826103ef8884610857565b815181106103ff576103ff61088e565b6001600160a01b03909216602092830291909101909101526001016103d2565b5095945050505050565b60606000610436856104d5565b905080831115610444578092505b60006104508585610857565b6001600160401b0381111561046757610467610878565b604051908082528060200260200182016040528015610490578160200160208202803683370190505b509050845b8481101561041f576104a78782610549565b826104b28884610857565b815181106104c2576104c261088e565b6020908102919091010152600101610495565b60006101c8825490565b6104ea600082610555565b5060008181526002602052604090206105039083610561565b506001600160a01b03909116600090815260036020908152604080832093835292905220805460ff19166001179055565b60006101c5836001600160a01b038416610576565b60006101c58383610669565b60006101c58383610693565b60006101c5836001600160a01b038416610693565b6000818152600183016020526040812054801561065f57600061059a600183610857565b85549091506000906105ae90600190610857565b90508181146106135760008660000182815481106105ce576105ce61088e565b90600052602060002001549050808760000184815481106105f1576105f161088e565b6000918252602080832090910192909255918252600188019052604090208390555b8554869080610624576106246108a4565b6001900381819060005260206000200160009055905585600101600086815260200190815260200160002060009055600193505050506101c8565b60009150506101c8565b60008260000182815481106106805761068061088e565b9060005260206000200154905092915050565b60008181526001830160205260408120546106da575081546001818101845560008481526020808220909301849055845484825282860190935260409020919091556101c8565b5060006101c8565b600080604083850312156106f557600080fd5b82356001600160a01b038116811461070c57600080fd5b946020939093013593505050565b60008060006060848603121561072f57600080fd5b505081359360208301359350604090920135919050565b602080825282518282018190526000918401906040840190835b818110156107875783516001600160a01b0316835260209384019390920191600101610760565b509095945050505050565b600080604083850312156107a557600080fd5b50508035926020909101359150565b602080825282518282018190526000918401906040840190835b818110156107875783518352602093840193909201916001016107ce565b6000602082840312156107fe57600080fd5b5035919050565b600a8152692927a622afa0a226a4a760b11b602082015260400190565b6020815260006101c860208301610805565b6001600160a01b03821681526040602082018190526000906101c5908301610805565b818103818111156101c857634e487b7160e01b600052601160045260246000fd5b634e487b7160e01b600052604160045260246000fd5b634e487b7160e01b600052603260045260246000fd5b634e487b7160e01b600052603160045260246000fdfea2646970667358221220ff8e171e353fc2de6d36941d5af105e6c787b0e0a87a7372c3a171d4e28239b264736f6c634300081d0033",
  "devdoc": {},
  "userdoc": {},
  "storageLayout": null,
  "notes": "Initial deployment - deployer has ROLE_ADMIN"
}